:1000000053D9BFF5D975810875A64775E340D2A6C7
:10001000C29575A52575E24075844075B00175855A
:100020000BE5F2547FF5F2D297E5D54480F5D5750E
:10003000BB0F75E88075BCFC75D1081200CB780049
:10004000D2957480120098E81200A4791074F0120E
:100050000098D9F974001200987400120098C295A3
:1000600008B880DCD2A1D2A0C2A212008BC2A0D25A
:10007000A212008B75E890E5E8542070FAE5BD54B3
:10008000807004D2A180DFC2A180DB7A1079007871
:1000900000D8FED9FADAF62275B001F586E5B0543B
:1000A0008060FA227B08FCEC33FCED13FDDBF812D8
:1000B0000098227B08FCECC29254806002D292D25B
:1000C00090EC23FCC290DBEEC29222D295742012F7
:0A00D00000987400120098C29522F7
:00000001FF
